:020000020000FC
:1000000004E00EBF0FE50DBF0E9410000E94930098
:100010000E941B003030C1F30E941D000C940800A8
:1000200060E050E24FEF1FEF33272227F1E0E4E4D6
:100030000FEF07BB0895359108950E9426003513F0
:100040000E94380026130E9493000895FF93EF93B7
:10005000F1E0EEE40E948A00032F0052003021F00C
:100060000A9531960C942E002491EF91FF910895FA
:10007000220F48F4203069F42030D1F70E94690043
:100080000E94690008950E9453000E9469000C9428
:100090003C000E9453000E9453000E9453000E94A3
:1000A00069000C943C00042FC79A0E947F000E94B4
:1000B0007F000E947F000E947F00C7980E947F00FF
:1000C0000E947F000E947F000E947F000A9561F7D6
:1000D0000895042FC7980E947F000E947F000E940D
:1000E0007F000E947F00C7980E947F000E947F00CF
:1000F0000E947F000E947F000A9561F70895C12F3A
:10010000CA95F1F70895042FCFEFCA95F1F70A9534
:10011000D9F70895032F005222F0032F0E550AF449
:10012000089530E208950E9469000E9469000E94CB
:1001300069000E9469000E9469000E9469000E9493
:1001400069000895534F532048454C500000010169
:100150004A010101017AB4B60101CE865694FC7CB5
:100160003C1C0C0484C4E4F4E2AA018C013201605A
:1001700088A8904028D0082078B048E0A0F068D83F
:0C0180005010C030187098B8C858E86CD7
:00000001FF
