:020000020000FC
:1000000004E00EBF0FE50DBF0E9446003327C89BDA
:100010000C9407000E944000C89B0C9407000E94AB
:1000200019000FEF20130C9406000E944E000C9450
:1000300006000E9437000E942E000E9437000E9496
:100040002E000E9437000E942E000E9437000E945E
:100050002E000E9437000E943300089549B341707A
:100060004795331F0895C89920E02FEF0895C79A48
:10007000052F1FEF1A95F1F70A95D9F7C79808953C
:10008000C79A152F1695012F0C94390000270ABB2B
:100090000FE007BB0FEF0BBB54E5089538BB089585
:00000001FF
