:020000020000FC
:100000000C9404000C94270004E00EBF0FE50DBF14
:100010000E94B8000E94C8000E9445000E94FF0094
:100020000E949E000E9436010091600010916200C3
:10003000011759F40091610010916300011729F430
:1000400006E90E940E010E94C8000C940C000F9358
:100050001F93FF93EF93F0E0E4E6008110E1010FBE
:10006000003509F400E00BBB0083E5E6F0E0029503
:10007000E00F008108BB00916A00039500936A00BD
:10008000EF91FF911F910F9118950F93002700ECAE
:1000900007B9002707EC06B936990C944C0005B156
:1000A0000370033021F0003049F00C94630000919C
:1000B00060000395009360000C9463000091600061
:1000C0000A9500936000002701EC07B9002707ECB0
:1000D00006B936990C94690005B10370033021F01C
:1000E000003069F00C94840040916100009161003F
:1000F000039500936100009161000C9484000091CD
:1001000061000A95009361000E9488000F91089594
:100110000091600017E00E9497000093600000913A
:10012000610015E00E94970000936100089500604F
:100130001AF0011711F4025003950895FF27E0E625
:100140000E94A700FF27E2E60E94A70008951191F0
:100150000E94B1001081E5E6E10F1081102B1083A1
:10016000089501E01A951AF0000F0C94B20008955A
:100170000AE005BF00EC0BBF0FEF07BB00EF0ABBA7
:1001800000E00BBB08BBF0E0E4E600837894089540
:10019000FF93EF930F93E0E6F0E000E0019302E0BD
:1001A00001930F920F920E94DF000F9101930F9124
:1001B00000830E94FF000F91EF91FF9108950F932C
:1001C0001F93FF93EF930EB7F02F0DB7E02F009121
:1001D0006A0017E0102315300AF015501395139597
:1001E000178318E3102316951695169515300AF007
:1001F00015501087EF91FF911F910F910895EF9384
:10020000FF930F9300E0E5E6F0E001930193019383
:10021000019301930F91FF91EF91089528E206E970
:10022000C79A0E942D01C7980E942D010A95C1F717
:1002300024E106E9C79A0E942D01C7980E942D016A
:100240000A95C1F72AE006E9C79A0E942D01C798CE
:100250000E942D010A95C1F708950F93022F1FEFF9
:100260001A95F1F70A95D9F70F9108950F93FF9317
:10027000EF93F0E0E6E400810E9444010A95E1F783
:10028000EF91FF910F9108950F931F9305E11FEFD9
:0E0290001A95F1F70A95D9F71F910F9108956D
:00000001FF
