:020000020000FC
:100000000C9406000C9435000C9445008827772743
:1000100066275527442733272227002704E00EBFF1
:100020000FE50DBF00270FEF0ABB0FE007BBF0E0A5
:10003000EAEED2E0C0E006E0009300010FE4009396
:1000400001010093020107E0009303010AE005BFEC
:1000500000EC0BBF78940C942B007395072F0A507B
:1000600008957395072F065008950F930FB70F93B8
:100070000027C80F0881C81B0BBB88BB839582FD76
:1000800088270F910FB70F9118950F930FB70F9304
:10009000762F0E942D00672F99F46627752F0E94F6
:1000A0003100572F69F45527742F0E942D00472FD8
:1000B00039F44427732F0E943100372F09F4332776
:1000C0000027E60F04910883E61BE50F04910983DE
:1000D000E51BE40F04910A83E41BE30F04910B83F7
:1000E000E31B0F910FB70F9118953F065B4F666D9D
:0400F0007D077F67A2
:00000001FF
